:1000000000800020DD080000C5080000C5080000D1
:1000100000000000000000000000000000000000E0
:10002000000000000000000000000000C508000003
:100030000000000000000000C508000031090000B9
:10004000C5080000C5080000C5080000C50800007C
:10005000C5080000C5080000C5080000C908000068
:10006000C5080000DD200000C5080000C50800002C
:10007000C5080000C5080000ED200000C50800000C
:10008000C5080000C5080000C5080000C50800003C
:1000900000000000C5080000C5080000C5080000F9
:1000A000C5080000C5080000C5080000C50800001C
:1000B0000000000010B5064C2378002B07D1054B3B
:1000C000002B02D0044800E000BF0123237010BDC4
:1000D000300100200000000028400000084B10B54F
:1000E000002B03D00749084800E000BF0748036819
:1000F000002B00D110BD064B002BFBD09847F9E731
:1001000000000000340100202840000028010020E9
:100110000000000010B50023040008002160A36067
:10012000E360012101F004FF200010BDF8B51F00BD
:10013000836804000E001500002B04D100F006FCBB
:1001400001236060A360A368012B06D100F0FEFBD1
:100150006368C01A069B984218D2A368022B07D185
:1001600000F0F4FB6368C01A069BF51AA84214D885
:10017000A368032B01D00120F8BD00F0E7FB636802
:10018000C01AB042F7D90020A060F5E72900206826
:1001900001F0E2FD0223A360DFE73900206801F0EF
:1001A000DBFD0323A360E3E7F7B51E00C36804008B
:1001B0000D001700002B04D10133C36000F0C6FB13
:1001C0002061E368012B07D100F0C0FB2369C01A4E
:1001D0000D9B984200D36DE0E368022B12D100F032
:1001E000B5FB2369C01A03F0E1FA071C280003F0ED
:1001F0008DFA0A9902F0CEFF011C381C02F07CFD3A
:1002000000285FD1E368032B20D100F09FFB236916
:10021000C01A03F0CBFA061C280003F077FA0B99FA
:10022000071C0A9802F07CFD011C381C02F0B2FF8A
:10023000071C0D9803F06AFA011C381C03F0CAF879
:10024000011C301C02F058FD002843D1E368042B48
:1002500026D100F07BFB07000D9803F057FA2369C5
:10026000061CF81A03F0A2FA0B9901900A9802F002
:1002700057FD0C9902F054FD071C280003F046FAC4
:10028000011C381C02F086FF311C02F049FD311CB4
:1002900002F046FD011C019802F02EFD002821D13C
:1002A000E368052B05D100F051FB2369C01AA84271
:1002B00020D8F7BD3900206801F04EFDE368013316
:1002C000E36089E73100206801F046FDE36801330F
:1002D000E36097E70899206801F03EFDE368013389
:1002E000E360B3E70999206801F036FDE368013364
:1002F000E360D5E70023E360DBE770B505000E009F
:1003000000246B689C420ADA286801F0BFFCA30055
:10031000EB18D860300000F01FFB0134F1E770BD2E
:1003200070B50400D4262160642315000800012262
:10033000002176006360A160A255AA26FF36A2556F
:10034000B032FF32A35001F0F3FD29002000FFF787
:10035000D4FF200070BD70B504008568006801F00E
:1003600095FC0235A368AD006268651901336860C9
:10037000A360934201DB0023A36070BDCE22002363
:1003800070B504005200416883508B4207DA980030
:100390002018C068A55801334019A050F5E7A058AF
:1003A00002F098FBD0235B00E05070BD70B50023D5
:1003B000012680220D000400067443618361C3613D
:1003C00052000549203003F083FA280025603100EF
:1003D00001F0AEFD200070BD1C3A0000F8B5836846
:1003E00004000D00161C002B08D10127876000F0C7
:1003F000ADFA3900E060206801F0E6FDA368012B4A
:1004000012D100F0A3FAE368C01A03F0CFF9071C79
:10041000280003F07BF9311C02F0BCFE011C381CE3
:1004200002F06AFC00281DD1A368022B19D100F04C
:100430008DFAE368C01A03F0B9F9071C280003F02D
:1004400065F9051CFE20311C800502F0C3FF011C6C
:10045000281C02F09FFE011C381C02F04DFC0028F5
:100460000BD1F8BD00F072FAA368E0600133A3601D
:100470000021206801F0A8FDD6E70023A360F0E783
:10048000F8B51D00436904000F001600002B08D1C9
:1004900000F05CFAA369C01AA84232D8237C002B72
:1004A0002FD16369012B06D100F050FAA369C01A5D
:1004B000069B98423AD86369022B17D100F046FA9E
:1004C000A369C01AA8420BD900F040FAE369A06101
:1004D000013BE361E3180133D97F206801F03CFC64
:1004E000E3699F4202D16369013363616369032B4E
:1004F00006D100F02BFAA369C01A069B98421CD8BB
:10050000F8BD0023237400F021FAE369A0610133F0
:10051000E361E3180133D97F206801F01DFCE36932
:100520009E42BED1636901336361BAE700F00EFAFF
:100530006369A06101336361BDE701232374002374
:100540006361DDE7F7B52F4D90242800FFF716FF14
:100550002D4E00903000FFF711FF01903000FFF7A3
:100560000DFFFF34A04204DC2800FFF707FFA04284
:1005700026DD0023254A1370254A2BE000F0E6F91A
:100580003B68C01AFA23DB00984224D90022214B91
:100590001A601F4B1B7893421DD101231E4A137012
:1005A0001E4A13701E4A15E000F0D0F92368C01AE5
:1005B000FA23DB00984202D90122164B1A60F7BDDC
:1005C000124B184F1B78002BD8D100F0BFF9012334
:1005D0000E4A386013703000FFF7D0FE124EA04272
:1005E00006DC2800FFF7CAFEA04201DC002307E07A
:1005F00033780E4C002BD7D100F0A8F901232060EE
:100600003370DCE7000300204C0100203C07002091
:1006100030070020340700200000002001000020E7
:100620000200002038070020440700204007002077
:10063000F0B5344B87B01B68002B03D0012B35D0AD
:1006400007B0F0BD0121304A304E11703278304C85
:10065000304D002A20D12378002B02D12B78002B9B
:10066000EED02B78002B09D01E23FA210093FF2215
:10067000143BC9002848FFF759FD28702378002B48
:10068000DED03C23FA210093FF22323BC9002348ED
:10069000FFF74CFD2070D3E7FA210093FF220A23D5
:1006A000C9001F48FFF742FD3070DAE700256426D5
:1006B0001C4C1D4F059504940394029701960095D8
:1006C000C823FF2219491648FFF76EFD1E23049424
:1006D00005930394029701960095AA33FF221349CC
:1006E0000D48FFF761FD3C230494059303940297A2
:1006F000019600958C33FF220C490848FFF754FD02
:100700009EE7C0463407002030070020000000208C
:100710000200002001000020C8040020DC040020AA
:10072000B40400209A99993ECDCC4C3E8813000029
:10073000F7B50121192001F0FBFB0021192001F080
:1007400043FC01211A2001F0F3FB00211A2001F0E3
:100750003BFC0121022001F0EBFB0021022001F013
:1007600033FC052408266425FF21300001F0F4FA4B
:10077000280000F0F1F80021300001F0EDFA013C12
:10078000280000F0E9F8002CEED1184F184D3B7806
:10079000184E002B06D12B78002B0CD13378002B70
:1007A00009D1F7BDFA2100940A23FF22C90012489B
:1007B000FFF7BCFC38703378002B09D01E23FA21D8
:1007C0000093FF22143BC9000C48FFF7AFFC3070C8
:1007D0002B78002BE5D03C23FA210093FF22323BFB
:1007E000C9000748FFF7A2FC2870DAE700000020E4
:1007F0000200002001000020B4040020C8040020F2
:10080000DC04002073B5FA24640064260123FF226F
:100810001E2110480096FFF733FE0F48FFF79BFD9F
:100820000E48FFF798FDFFF78DFEFFF701FF0C4D17
:100830002B68002B05D1FC22210092050948FFF707
:10084000CDFD2B68012BE1D1002221000548FFF7E7
:10085000C5FDDAE7F00400204C0100200003002071
:10086000340700201006002010B508210E48FFF7BD
:100870009DFD19210D48FFF799FD0A2213210C480F
:10088000FFF74EFD0A220F210A48FFF749FD052117
:100890000948FFF73FFC0A210848FFF73BFC062107
:1008A0000748FFF737FC10BDF004002010060020B9
:1008B0004C01002000030020B4040020C8040020E4
:1008C000DC04002003BEFEE7034B10B51B68002BC1
:1008D00000D0984710BDC0464807002070B50F49AA
:1008E0000F4CA14204D100F0BDF800F051F8FEE732
:1008F0000C4D00238D42F6D0CA18E818A24205D349
:100900009042F0D0084B0949002204E0006804330B
:100910001060F1E704C38B42FCD3E4E70000002041
:10092000300100202C40000030010020DC0E0020AF
:1009300010B500F02AF8002801D100F01BF810BD16
:10094000014B18607047C04648070020014B1868EB
:100950007047C0464C07002070B5041E07D0044DF8
:100960002E6800F011F82B689B1B9C42F9D870BDD3
:100970004C07002010B5034A13680133136000F0E0
:1009800035F810BD4C0700207047002070477047B5
:1009900010B501F0C7F802F06DFFFFF7F8FF012076
:1009A000FFF7DAFF084C200000F04CFB200000F0BD
:1009B000C1FBFFF7BDFEFFF725FF044B002BFAD06C
:1009C00000E000BFF7E7C04650070020000000002D
:1009D000014B18607047C046040000200122024B02
:1009E00052421A607047C04604000020164A10B5F3
:1009F0001368591C27D0013B1360002B23D172B61A
:100A0000124B134A0433934208D8BFF34F8F114A55
:100A1000114BDA60BFF34F8FC046FDE70F4A01214B
:100A20001000147D0C42FCD02021148BFF319B0858
:100A30005B0021431183D361094B13800123027DA5
:100A40001A42FCD0E1E710BD0400002000000000C5
:100A5000030200000400FA0500ED00E00040004140
:100A600002A5FFFF1E2270B54648474943689343DD
:100A70001C3A1343436008238C6923438B61434C26
:100A8000434B9C829C8A14439C82DC681442FCD0B9
:100A90000124404A14701578254203D055786DB270
:100AA000002DF8DB01249460547864B2002CFBDB49
:100AB000394C5460547864B2002CFBDB8224E4018E
:100AC0005480547864B2002CFBDB02249C840E34E6
:100AD000DD682542FCD0314CDC621024DD68254203
:100AE000FCD09D8C2E4C2C439C841024DD68254228
:100AF000FCD002249D8C80262C439C844024DD68FD
:100B00003542FCD0DD682542F9D01024DD6825424D
:100B1000FCD000249460547864B2002CFBDB214CA0
:100B20005460547864B2002CFBDB1C6A1E4D2C40D0
:100B300080251C621C6AAC431C62032393601B4B20
:100B4000536053785BB2002BFBDB0023FF240B7256
:100B5000174A4B728B72CB72164B1A60164B174AA0
:100B60001B6811689A065B01C90E2340520F1202DE
:100B70000B431343124A1385802342681343436097
:100B800070BDC04600400041000400400C0600005B
:100B900000080040000C004001050100B905FF7D80
:100BA000040A000000070300FFFCFFFF030601002A
:100BB000006CDC0230000020246080002060800097
:100BC0000040004230B50F25CB1D013902002A40FC
:100BD000140000093034092A01DD373214001C707A
:100BE000013B8B42F2D130BD70B582291FD1C3B217
:100BF0002C4D5A01AA1891692B4C80010C40C02140
:100C000089052143916129490833081880215061E1
:100C10002A685B01D0180479494221430171702090
:100C2000995C8143080030210143995470BD00292B
:100C3000FCD1C024C1B21B4E4B01F3189A681A4D67
:100C4000A4052A4022439A60194A800110180A001C
:100C500058603068072608325201115CB1430E001B
:100C600001213143115499690D402C439C6170243A
:100C70000E495961115CA1430C001021214311540C
:100C800099680C4C82180C408021490321439960DB
:100C90009968890B89039960402351790B435371FB
:100CA000C4E7C046080C0020FFFFFF8F7C07002030
:100CB0003C090020FF3F00F070B50400012320CC68
:100CC00000212A782000134380222B70520002F06A
:100CD00008FEAB78DB07FCD46C6270BD1F22144B9E
:100CE00070B51B68590B9C0C9B0111405B0F224097
:100CF0001F2900D11A391F2A00D1023A072B00D12F
:100D0000043B1F2500688E01048D0A492A402140BA
:100D100031430185018D14000A00AA432243028554
:100D2000028D1903044B13400B43038570BDC0466D
:100D3000246080003FF8FFFFFF8FFFFFEFF3108379
:100D400003600123436072B670470368002B02D131
:100D500062B6BFF36F8F704737B505690400684608
:100D6000002D14D1FFF7EAFF019B621D013B02D366
:100D7000D57FEDB2FAE768460193FFF7E6FF002D55
:100D800001D100203EBD206AE369C01AFAE7FFF7EF
:100D9000D5FF22000025019B3432013B02D3157898
:100DA000EDB2FAE768460193FFF7CFFF002DE8D0D8
:100DB000206BE36AE9E70000F0B501254668037A95
:100DC00031685A018C18FF34A77AB2183D43A572D6
:100DD000C468094D9068A404284024092043906009
:100DE00090680833800B8003906040225B01CB1831
:100DF00019790A431A71F0BDFF3F00F0F7B5036996
:100E000004000E0017006846002B3DD1FFF796FF47
:100E1000019B611D013B5A1C0CD0CD7F5A1EEDB2C7
:100E2000002D05D168460193FFF78FFF2800FEBD16
:100E30001300F0E7684601930025FFF786FFE3699A
:100E4000AF4202D0226A934257D3226A9342EDD135
:100E50000023E361013323616846FFF76FFF22003F
:100E60000021019B671D013B3532581CDAD0F97710
:100E700010785E1E002805D0117020000193FFF746
:100E80009BFFECE73300F0E7FFF758FF2100019BE1
:100E90003431013B5A1C06D00D785A1EEDB2002D9C
:100EA000C0D01300F6E7684601930025FFF74DFF19
:100EB000E36ABD4202D0226B934226D3226B934257
:100EC000B4D100236846E3622361FFF737FF2700B0
:100ED00022000021019B3437013B3532581CA1D040
:100EE000397010785E1E002805D011702000019323
:100EF000FFF762FFEBE73300F0E75A1CE261A269FB
:100F0000D3181B787355013599E75A1CE262A26A1F
:100F1000D3181B7873550135CAE7F7B5027A4368D1
:100F2000110004000831186849014118C879C00748
:100F300027D501255201CD719B189A6861699204E9
:100F4000920C002921D12262226A002A3ED0A26A94
:100F5000656168465A60FFF7F1FE27002100019B9A
:100F6000661D013B343735315A1C2BD0F5773A7862
:100F7000581ED2B2002A05D0019368460D70FFF7C3
:100F8000E4FEF7BD0A700300EEE72263226B002A3D
:100F90001CD000226261A26968465A60FFF7CEFE4B
:100FA00026002100019B3436013B671D35315A1C58
:100FB00008D03570FA7F581ED2B2002ADCD10A70F0
:100FC0000300F4E768460193FFF7BFFE2000FFF738
:100FD000F3FED6E737B56B46DC1D00230D0020007D
:100FE000237001F019FC2B681818286001F0B8FC78
:100FF000210001F071FC2B681818286020783EBD94
:1010000003290ED180220E4B62311B68FF31585CE0
:10101000524202435A5468226339FF39FF329954CD
:1010200070470129FCD18022054B24311B68FF3118
:10103000585C524202435A542339FF392822EDE7C3
:10104000080C002070B500252F4B012104001A2048
:101050001D7000F06DFF01211A2000F0B5FF2B4B31
:10106000012119201D7000F063FF0121192000F0FB
:10107000ABFF2023264A0F20D1690B43D361012205
:1010800024490B7813430B70234B19788143197053
:1010900006211D782943197020490D782A430A70CA
:1010A0001A7802401A70602219780A431A701C4B91
:1010B0001C4A5A805A78D209FCD11B48FFF740FCE1
:1010C0001A4D2800FFF7F8FD2800FFF707FE7F21E3
:1010D0002B68C1201A7880000A401A7004221978FF
:1010E0000A430C211A701A898A4311491A810A5835
:1010F0001202120A0A5080220A6019787E3A0A43C4
:101100001A700123237070BD710700207007002042
:1011100000040040584400413C440041594400410F
:10112000000C004006400000051B0000080C0020D9
:1011300000E100E00078002810D00121084B1B6876
:101140001A898A431A810822198B0A431A830422B6
:10115000198B0A431A830022024B1A607047C0465B
:10116000080C0020000C002010B50F4A93699B0B5F
:101170009B03936113680222FF331A729879823AB3
:1011800002439A711A7A9207FCD57F24074A2140BC
:10119000937A0800A3431900802301439172917A46
:1011A0005B420B43937210BD080C002000500041BD
:1011B00010B50B790C00002B0CD1080001F03AFBA4
:1011C000002801D0012010BD094A93699B0B9B03A5
:1011D0009361F7E701F0C4FB210001F0B0FB0028A8
:1011E000F0D1034A93699B0B9B039361EBE7C046E5
:1011F000080C0020F7B50D00832A19D1CBB2324C70
:101200005A01A21891693148AD010840C0218905F1
:10121000014391612E4920684D19702108335561B1
:101220005B011A5C8A43110040220A431A54F7BD3D
:10123000022A44D18B000193264B8A00D658002EF7
:10124000F5D1382000F0A4FF234B1F4F036080230B
:101250005B00C360431D0662856006614661C6612E
:1012600004004760DE77C662066380202F331E705D
:1012700040005E7002F022FB0600A061802040006A
:1012800002F01CFBEDB26B01A062FB189A680F49DB
:1012900007201140C02292050A439A603A68083537
:1012A0006D01A95C8143080003210143A95420007A
:1012B0005E60FFF781FD074B019AD450B7E711003C
:1012C0002800FFF791FCB2E7080C0020FFFFFF8F1A
:1012D0007C07002054070020243B000070B5050067
:1012E0000124064BA200D258002A05D02100280074
:1012F000FFF780FF0134F4E770BDC046080000200E
:10130000084B8A00D05810B5002803D003689B68AA
:10131000984710BDC9B2044B490159188868800428
:10132000800CF6E754070020080C002010B50C00D4
:10133000FFF7E6FF00280CD0064BE4B21B68083428
:1013400064011C19802362795B4213436371022399
:10135000E37110BD080C002070B5134BCCB2134ADA
:10136000600189015918131859609968104D0834A3
:101370000D40802189022943402599609968890B95
:101380008903996011686301CB181E7935431D717B
:101390009D796D06FCD564010919CB79DB07FCD575
:1013A00012189068C0B270BD3C090020080C0020E3
:1013B000FF3F00F070B5140040220B4B0D001B687E
:1013C000FF3359790A435A710021FFF7C5FFA04244
:1013D00000D9200000230549A34203D05A5CEA54F7
:1013E0000133F9E770BDC046080C00203C0900201D
:1013F00010B5C9B20B484901421893689B049B0C75
:101400003F2B0BDD9468403B9B04A40B9B0CA40377
:101410002343936041188868C0B210BD93689B0B4A
:101420009B03F6E7080C0020F0B51C00304B85B09C
:101430001B6806000D000192002B55D02D4F397806
:10144000C9B2002902D1192000F0BEFD64233B700F
:10145000294BAA00D058002808D0036822005B68F6
:10146000019998470400200005B0F0BD2900300024
:10147000FFF746FF844204D929003000FFF740FF00
:10148000040029003000FFF7B3FF0121EBB21B4F2E
:1014900003935B010293029A3B6801989B18FF3308
:1014A0005A7A0A4316495A72AB01C918220002F04F
:1014B0000FFA002CD7D029003000FFF721FF0028B9
:1014C000D1D14021039B3A6808335B01D3181879C6
:1014D000014319710121D9710121029BD318FF33F6
:1014E0009A7A0A439A72BEE701246442BBE7C04677
:1014F000000C00207007002054070020080C00207A
:101500003C09002013B56B46DC1D22000123FFF7C8
:101510008BFF012801D1207816BD01204042FBE756
:10152000F0B51E003A4B85B01B680F000192002BEE
:101530003FD08023DB019E423BD8364C2178C9B294
:10154000002902D11A2000F03FFD64230025324A11
:101550002370BB01D3180293002E2CD02F4B1B6895
:101560000393FF233B401C0000930834039B64015A
:101570001C19A379DB0921D0294B2A49186801F0ED
:101580001FFA294B1721584301F01AFA274BE27929
:10159000920713D4DA5D002A01D10138F7D2012273
:1015A000DA55009B5A011D4B9B189A69920B9203C6
:1015B0009A6101256D42280005B0F0BD00221B4B49
:1015C0003400DA553F2E00D93F24220001990298B9
:1015D00002F07EF9009BA1045A01104B890C9B1864
:1015E000029A2D195A619A69361B920B92030A438B
:1015F0009A61009B039A08335B01D3180222DA71C7
:101600005979823A0A435A71019B1B190193A3E746
:10161000000C0020710700207C070020080C00202F
:101620003000002040420F007011010073070020BD
:1016300070B50D001C000D4EAB01F6181100300006
:10164000220002F045F9EDB209496D014D196E61B4
:10165000AB69084A20001340AB61AB69A2049B0B45
:10166000920C9B031343AB6170BDC0467C07002006
:10167000080C0020FF3F00F0F7B5104B01901B78DD
:101680000F001500002B0CD10D4B16001C78002C00
:1016900009D00C4E0C4834880019641902F018F96E
:1016A00034802800FEBD002EFBD03A193300002103
:1016B0000198FFF7BDFF2418361AF4E7FC0A002052
:1016C000FD0B0020FE0B0020FD0A0020F8B50020D5
:1016D00000AF0E001500012A26DDD31D6A46DB0887
:1016E000DB00D31A9D46080002F074F96C46032310
:1016F000002101304000207063705A1ED2B2954222
:101700000BDD3078002808D00136A0549D4203D06C
:10171000E1540233DBB2F0E72A0021000348FFF76F
:10172000ABFF431E9841C0B2BD46F8BD5007002034
:10173000F0B50027012687B01E4B009102A91E704C
:1017400005000297FFF746FC03AC0190092239001F
:10175000200002F0C6F809232370022363709E3331
:10176000E3715A332372029B6671093363806B46BF
:101770001B7923710F4B1F70009B092B07D11A0097
:1017800021002800FFF778FF012007B0F0BD0A4BC9
:1017900009221E70094E2100280002973780FFF7AA
:1017A0006BFF02A92800FFF715FC034B32881F705E
:1017B0000349E6E7FC0A0020FD0B0020FE0B002099
:1017C000FD0A002070B5CE7892B005000C00022E04
:1017D00008D1C9882B48FFF7ABFF431E9841C0B220
:1017E00012B070BD01F0BCF8210001F089F80028AA
:1017F00003D0C317181AC00FF2E7012E0BD1E288ED
:101800002149112A10DCD2B2002A0DD02800FFF79E
:1018100033FF0120E4E7032EE2D1A378002B05D1AA
:10182000E2881A49032AEEDD0A78EFE7022B05D198
:10183000A27917492800FFF749FFD1E7012B02D110
:10184000A2791449F6E7032BCAD1134B01A91868F2
:10185000FFF7B8F9114B03A91868FFF7B3F9104B5C
:1018600005A91868FFF7AEF90E4B07A91868FFF72E
:10187000A9F901F075F809A901F052F8A27901A9B6
:10188000D8E7C046500700204E3B00003E3B00001A
:10189000303B0000423B00000CA0800040A08000D4
:1018A00044A0800048A0800073B5060048780D0071
:1018B0000B2811D801F07AF8061D102E104348703D
:1018C0004C4F696C097801AA002907D102231170D5
:1018D00051703000FFF7ACFE012076BD002313707D
:1018E00053702E4B1B78012B00D113700223002163
:1018F000EFE78A780023012A04D101AA13705370FC
:10190000274BEFE7254A1370264A93699B0B9B03ED
:101910009361E1E78C78012C06D10021204B01AACC
:101920001C7011702300D4E7002C08D101201B4B40
:101930001C4A187093699B0B9B039361CDE7A978B0
:101940003000FFF711FCC7E73000FFF73BFFC4E7AB
:101950000123154ACBE70B780020DB06BDD1300010
:10196000FFF7BCFC2A200221AA780F4BFF301A6037
:101970000C4A13681C5C21434A241954FF34195D36
:101980002938FF3801431955D4E70123074AAEE748
:101990008A78064B1A60B7E700209EE7720700209E
:1019A0007A070020080C0020000C0020040C002006
:1019B0004C4BF7B51C780700002C00D07DE04A4E58
:1019C00033689B8B1B070ED521002000FFF70CF915
:1019D000326810231100FF31887A03438B72434B26
:1019E0001C600823938333689A8B52071FD5042207
:1019F0009A833F4A1378002B0AD01378013BDBB25D
:101A000013701378002B03D101211A2000F0DCFAA7
:101A1000384A1378002B0AD01378013BDBB21370DD
:101A20001378002B03D10121192000F0CDFA33687F
:101A3000FF331A7AD20620D510221A725979303221
:101A40000A435A7160232C4938000A781A4235D16A
:101A5000FFF72AFF002834D0802233685242FF3338
:101A600099790A439A713368FF331A7A520604D57A
:101A700040221A72597A0A435A72336800251C8C24
:101A800001239C43E4B20193E9B2002C15D023005A
:101A90002B41019A13420DD02B00326808335B01B1
:101AA000D318DA79D20713D4DB799B0710D4019BC2
:101AB000AB409C430135092DE6D1F7BDFFF778FB1C
:101AC000C8E720220D4BCDE703681B689847EEE777
:101AD0000B4BAA00D0580028F6D13800FFF790FA37
:101AE000E5E7C046FD0B0020080C0020000C00209C
:101AF00071070020700700203C090020FF500041C2
:101B00005407002010B50248FFF752FF10BDC04631
:101B100050070020014A024B1A60704700500041F4
:101B2000080C0020FA21314B10B51868890000F02C
:101B300047FF2F4B0138984256D82E492E4A48600D
:101B4000C020136A00061B021B0A03431362002411
:101B500007238C600B608021136A09061B021B0A95
:101B60000B431362FC22254B196A0A431A62FC22BA
:101B7000196A92010A431A62A022196AD2020A4320
:101B80001A6220000021013400F0D2F9142CF8D19F
:101B90001B4B1C005A7852B2002AFBDB194A5A80B0
:101BA000194B1A00597EC9090129FBD0E421C9004B
:101BB00099803F21D970537EDB09012BFBD0C023D4
:101BC00000205B011361907000F02EF863785BB227
:101BD000002BFBDB0D4B0E4A6380D379DB09012B15
:101BE000FBD04123537010BDFEE7C04630000020FB
:101BF000FFFFFF0010E000E000ED00E00004004007
:101C0000000C00401E400000004000422140000047
:101C100000480042914202D002D98A1AD04070474F
:101C2000521A9040FBE70000164A00B51300517E9F
:101C3000C9090129FBD00138042816D81969124AAC
:101C40000A400F211A615A788A4300F0AFFE030858
:101C5000060B0300110001220A435A7000BD110057
:101C60000322F9E711000222F6E7F02311691B05B0
:101C70000B430F21136153788B43190002230B434D
:101C80005370EBE700400042FFFFFFF010B5040087
:101C90000D2800D80E340121200000F0C1F90E2CCF
:101CA0000DD1284B1900DA79D209012AFBD0022084
:101CB0001A7882431A70CB79DB09012BFBD02249B9
:101CC0000B004A7ED209012AFBD0182262431F4C26
:101CD000A418207C1F240A692040A24302430A6101
:101CE0005A7ED209012AFBD0022219780A431A70BF
:101CF0005A7ED209012AFBD00222197B0A431A73A9
:101D000001221A765A7ED209012AFBD00222197BBF
:101D10000A431A731A7ED207FCD5588B80B25A7EBA
:101D2000D209012AFBD002211A788A431A705A7EFE
:101D3000D209012AFBD0064B1A68064B1968FFF737
:101D400069FF10BD0048004200400042703B0000A7
:101D5000380000203400002018234343F0B56B4ABC
:101D600087B09B18DA6806000C00009292071ED517
:101D70000E281AD1664B0A2219682000FFF74AFF85
:101D8000644A1300D179C9090129FBD08005800D6F
:101D90001081DA79D209012AFBD0022219780A438C
:101DA0001A70DA79D209012AFBD007B0F0BD0827F2
:101DB000009A574D3A40019200D196E012229B5E64
:101DC0002968200010220193FFF724FF019B0500E2
:101DD0001F126B461C79009B0421DB0600D40521F1
:101DE000300000F01DF94C4BDA5D002A58D1013269
:101DF000DA554A490F3202A801F06AFD02AA7B00B7
:101E00009B5A8022D2011A43454B5A805A78D209F4
:101E1000012AFBD0434ABB00D358022F1CD9022110
:101E20001A888A431A80DA7BD209FCD11988403299
:101E30000A431A80DA7BD209FCD10C34ADB26400BB
:101E4000E552DA7BD209FCD1198802320A431A80A2
:101E5000DA7BD209FCD1A8E702211A688A43324909
:101E60001A600A0098680842FCD10221D86B01432D
:101E7000D96399681142FCD11034A4001C19656023
:101E800099681142FCD12949196499681142FCD121
:101E9000022118680143196099681142FCD184E756
:101EA000204ABB00022F08D9D2580C34ADB26400CE
:101EB000A552D37BDB09FCD177E7D35802225979AD
:101EC0000A435A71184A110098681042FCD11C3418
:101ED000A400E5509A680A42FCD102221879024314
:101EE0001A719A680A42FCD15FE7012100F020F8DC
:101EF00029683A002000FFF78DFE01997F2800D95C
:101F00000121300000F060F84FE7C046703B000050
:101F10003C000020004800420C0D0020603B000007
:101F2000000C004040000020FF0F7F00FFFF00007A
:101F3000182330B51D00040045430820204A5519D8
:101F40002856013014D0032912D808006343D15613
:101F5000D31800F02BFD02280E1B5868CB0102217C
:101F6000184A9B181A1840321170012282405A6098
:101F700030BD5868CB010621124A9B181A1840320E
:101F80001170012282405A609A61F1E75868CB01D2
:101F900006210C4A9B181A18403211700122824007
:101FA0005A605A61E4E75868CB010221054A9B1840
:101FB0001A1840321170012282409A60D8E7C04658
:101FC000703B0000004400411823F0B5082458433A
:101FD000114A13181C5701341BD0012635005F68C5
:101FE0008356BD400D4ADB019A18906828420BD1F8
:101FF0000C00601E8441D219403210783440033600
:10200000A400B04320431070044A9B18002901D15A
:102010005D61F0BD9D61FCE7703B00000044004144
:10202000F8B50300182058432A4A1018007A40B225
:102030000400013013D0481C00240C280FD800F0F5
:10204000B5FC451C1C1C1C1C1C1C1C07070707009E
:10205000092906D100211800FFF76AFF002420009B
:10206000F8BD0A2901D10839F5E700240B29F6D17A
:102070000A391800FFF75CFFF1E718204343D01836
:10208000466801253400D2561348D201121873084D
:10209000D31830332C401878002C0BD00F240901B2
:1020A00020400143C9B292191970403213781D4380
:1020B0001570D3E70F27B84301439219C9B21970BD
:1020C000130040331A7815431D70C8E70124644299
:1020D000C5E7C046703B00000044004110B502480F
:1020E00000F07CFA10BDC046D00D002010B50248AB
:1020F00000F074FA10BDC046140D0020F7B501249D
:102100000326154F1549380000F046F814491548C4
:1021100000F042F81449154800F03EF814491548FB
:1021200000F03AF81449154800F036F8144D1549F6
:10213000280000F031F839000096230001940022B5
:10214000114800F0F3F90096290001941E231F2284
:102150000E4800F0EBF9F7BD8C0E0020000800429D
:10216000000C0042900E002000100042940E00204F
:1021700000140042980E0020001800429C0E00201F
:10218000A00E0020001C0042D00D0020140D0020E5
:1021900010B501F093FB10BD01607047F0B505ACC0
:1021A00025780468981E471EB841266892070006E5
:1021B00032430243072022600140AD016268294397
:1021C0000020022B00D05803114301436160F0BD91
:1021D00010B5C0240368A403186812052240024306
:1021E000C020090480020140114319605A6810435D
:1021F000586010BD0122036819680A431A601A6802
:10220000D207FCD4DA69D207F9D4704702220368F6
:1022100019680A431A60DA699207FCD470470368A8
:102220001A7ED20702D41A7E9207FCD5704700228C
:1022300003685A8370470368187E4007C00F7047D1
:102240000368187EC0097047802302685B42117ED4
:102250000B43137670470368187EC007C00F7047A2
:102260000368188DC0B2704703681A7ED207FCD588
:1022700089B2012019857047012203689A75704759
:10228000012203681A7570470368214A30B59342EA
:1022900011D0204A93422FD01F4A93422FD01F4A79
:1022A00093422FD01E4A93422FD01E4A934222D1EE
:1022B0000E23192201E0092314220121032599404C
:1022C0001948C024016099082B40AB40FC359D4063
:1022D00089000918A4000859A843C0259D402B0077
:1022E00003430B518023DB011A43104B5A805A7869
:1022F00052B2002AFBDB30BD0A231522DDE70B2397
:102300001622DAE70C231722D7E70D231822D4E789
:1023100000080042000C004200100042001400427D
:1023200000180042001C004200E100E0000C0040E8
:10233000F8B5040016000F001D00FFF7A5FF2000F0
:10234000FFF758FF1C22BB00134072072468120CD1
:10235000134323608423A375012F18D11021012E6C
:1023600000D008390A4B69431868C00000F028FB08
:102370000722A3890240DB045203DB0C1343A38131
:102380000304A089DB0C400B40031843A081F8BD77
:10239000300000200120704710B50368014A1B6A15
:1023A000984710BD13040000826D436D9A4203D01C
:1023B000836DC018007D704701204042FBE710B5D7
:1023C00004000069FFF716FF0023220063659C32BA
:1023D000A365A0341360236010BDF02001403039A4
:1023E000484248417047F0231B01194080230620D2
:1023F0009B0099420AD00133FF330130994205D046
:10240000802302385B00994200D0002070470F20E3
:1024100001400020012903D00239481E8141481C97
:10242000704700000300F0B5182685B00391A4336F
:1024300004001878330008214343334D1700EB188C
:102440005956FFF7EDFD2300A53318783300082116
:102450004343EB185956FFF7E3FD2300A7331B78DE
:10246000022B0AD12300B8331878FF2805D00821A1
:102470004643AE197156FFF7D3FD2600A8363078D3
:10248000FF2819D00121FFF753FD182221003378CE
:102490001E485A43AB56AC31DB01181808601C4982
:1024A000AD185B1821000122B0310B6069688A40C9
:1024B0002100B4310A601A600122039B11002069D7
:1024C000FFF736FF39002000FFF78DFF39000500C8
:1024D0002000FFF79CFF390006002000FFF77DFF7A
:1024E00033000090290020690122FFF757FE2300E6
:1024F000A6331A7859782069FFF76AFE2069FFF73A
:1025000085FE05B0F0BDC046703B00001844004198
:102510001444004110B540220021040001F0E1F90B
:10252000002320002364636410BD0000F7B51D0084
:1025300008AB1B780400009309AB1B7816000193CD
:1025400000234360FA239B0083600E4B0F00083387
:1025500003601430FFF7DEFF20005C30FFF7DAFF86
:102560006A4623001278A43327619A706A4612796A
:102570001E70DA7022005D70FF23A83220001370F5
:102580001374FEBD903F0000036C406C181A00D518
:102590004030704710B5040020005C30FFF7F4FFB6
:1025A0000028F9D12069FFF73AFE10BD10B51430AC
:1025B000FFF7EAFF10BD026C436C9A4204DB036C28
:1025C000406CC01A3F307047436C006C181A0138D9
:1025D000F9E710B55C30FFF7EEFF10BD70B50400F1
:1025E0000069FFF728FE00281FD02069FFF738FE9A
:1025F0003F22636D01331340A26D934203D0626D9D
:10260000A218107563652300A8331B78FF2B0CD02C
:1026100020001430FFF7CFFF092806DC230022003A
:10262000AC33B4321B6812681A602069FFF713FEDE
:10263000002819D025005C352800FFF7A5FF0028E9
:1026400021D022002300A0329C3311681B689942DC
:1026500016D03F201368E95C136801330340136010
:10266000C9B22069FFF700FE2069FFF7E9FD0028E5
:1026700005D02069FFF7E8FD2069FFF7D8FD70BDA0
:1026800001214942ECE72069FFF7FAFDECE7000081
:10269000F8B5040000690D00FFF7DDFD002826D124
:1026A0003F260127220021009C321368A0310868D0
:1026B0000133334083422ED1EFF310833B420DD1DF
:1026C0001D4B5B68DB05DB0DECD0103B5BB2002BD8
:1026D00018DB9B08C033194A9B009B582069FFF701
:1026E000BAFD0028DED02000FFF778FFDAE72000EF
:1026F0005C30FFF749FF0028D2D129002069FFF79D
:10270000B3FD16E00F221340083B9B080C4A9B00C8
:102710009B181B68E2E7136801331E400B689E425A
:1027200004D0210013685C31CD5416602069FFF796
:10273000A3FD0120F8BDC04600ED00E000E100E08F
:102740001CED00E0826D436D70B504009A421AD012
:102750003F22836DC3181D7D836D01331340836554
:102760002300A8331B78FF2B0BD020001430FFF779
:1027700022FF0A2805DD2300B434B0331B68226829
:102780001A60280070BD01256D42E9E73F207047BF
:1027900013B56B460268D9710733546819000122DA
:1027A000A04716BD10B502210069FEF7A9FD10BDB6
:1027B00010B503210069FEF7B9FD10BD10B5130077
:1027C00004000A0000690321FEF7AAFE002801D1D7
:1027D0000123636010BD000010B5054C23685A1C2E
:1027E00004D103685B69984703002060180010BD9E
:1027F000A8000020074B0200186810B5411C03D048
:10280000012252421A6010BD02211069FEF77AFEC1
:10281000F9E7C046A800002010B503784222023331
:10282000037002490248FEF727FF10BD6400002034
:102830005007002010B50178030042780020A1293C
:1028400008D1212A05D11A3A16491748FEF714FF74
:10285000012010BD2129FCD1202A11D1193A11499A
:102860001148FEF7A7FD96220E4BD200196891423F
:1028700003D10124D87904400ED0FEF7AFF80EE062
:10288000222A03D19A78074BDA71ECE7232AE0D1A8
:102890005A88064B1A60DCE7FA20FEF799F8002008
:1028A000D7E7C0465C0000205007002058000020F9
:1028B000FA220021054B92009A60054A59600832BD
:1028C0001A60044A19761A617047C046A40E0020A7
:1028D000C43F00005007002070B50E00002544687A
:1028E000002C0BD0236831005B682000984700283B
:1028F00002DB2D18E468F3E701256D42280070BD66
:1029000070B50D004468002C08D0236829009B682E
:1029100020009847002802D1E468F4E7200070BD49
:1029200070B50D004468002C07D0236829002000F2
:10293000DB689847E4682D18F5E72C7070BD70B51A
:102940000D004468002C08D0236829001B68200073
:102950009847002802D1E468F4E7200070BD000029
:102960000121064A10B5136805480B4005D1022421
:102970000470241944704360116010BDC00E002023
:10298000C40E0020F7B506000D000C008B18019353
:10299000019B671B9C4207D0336821781B6830007D
:1029A000984701340028F3D13800FEBD02B47146C7
:1029B00049084900095C49008E4402BC7047C04682
:1029C000002243088B4274D303098B425FD3030A6E
:1029D0008B4244D3030B8B4228D3030C8B420DD381
:1029E000FF22090212BA030C8B4202D3121209020F
:1029F00065D0030B8B4219D300E0090AC30B8B424D
:102A000001D3CB03C01A5241830B8B4201D38B03FA
:102A1000C01A5241430B8B4201D34B03C01A52419F
:102A2000030B8B4201D30B03C01A5241C30A8B42E2
:102A300001D3CB02C01A5241830A8B4201D38B02CD
:102A4000C01A5241430A8B4201D34B02C01A524171
:102A5000030A8B4201D30B02C01A5241CDD2C309E3
:102A60008B4201D3CB01C01A524183098B4201D35F
:102A70008B01C01A524143098B4201D34B01C01A4A
:102A8000524103098B4201D30B01C01A5241C308C2
:102A90008B4201D3CB00C01A524183088B4201D331
:102AA0008B00C01A524143088B4201D34B00C01A1D
:102AB0005241411A00D20146524110467047FFE789
:102AC00001B5002000F0F0F802BDC0460029F7D0A3
:102AD00076E7704703460B437FD4002243088B42BE
:102AE00074D303098B425FD3030A8B4244D3030B95
:102AF0008B4228D3030C8B420DD3FF22090212BA5A
:102B0000030C8B4202D31212090265D0030B8B42D5
:102B100019D300E0090AC30B8B4201D3CB03C01ABF
:102B20005241830B8B4201D38B03C01A5241430B9A
:102B30008B4201D34B03C01A5241030B8B4201D38A
:102B40000B03C01A5241C30A8B4201D3CB02C01AF5
:102B50005241830A8B4201D38B02C01A5241430A6D
:102B60008B4201D34B02C01A5241030A8B4201D35C
:102B70000B02C01A5241CDD2C3098B4201D3CB0103
:102B8000C01A524183098B4201D38B01C01A5241B2
:102B900043098B4201D34B01C01A524103098B42B6
:102BA00001D30B01C01A5241C3088B4201D3CB00A1
:102BB000C01A524183088B4201D38B00C01A524184
:102BC00043088B4201D34B00C01A5241411A00D234
:102BD00001465241104670475DE0CA0F00D049429D
:102BE000031000D34042534000229C4603098B420D
:102BF0002DD3030A8B4212D3FC22890112BA030A95
:102C00008B420CD3890192118B4208D38901921116
:102C10008B4204D389013AD0921100E08909C3099B
:102C20008B4201D3CB01C01A524183098B4201D39D
:102C30008B01C01A524143098B4201D34B01C01A88
:102C4000524103098B4201D30B01C01A5241C30800
:102C50008B4201D3CB00C01A524183088B4201D36F
:102C60008B00C01A5241D9D243088B4201D34B008A
:102C7000C01A5241411A00D20146634652415B10CC
:102C8000104601D34042002B00D5494270476346AD
:102C90005B1000D3404201B5002000F005F802BDF2
:102CA0000029F8D016E770477047C0468446081CD4
:102CB0006146FFE71FB500F02BFA002801D4002180
:102CC000C8421FBD10B500F0BDF94042013010BD33
:102CD00010B500F01DFA002801DB002010BD012016
:102CE00010BDC04610B500F013FA002801DD002029
:102CF00010BD012010BDC04610B500F0C9F9002874
:102D000001DC002010BD012010BDC04610B500F050
:102D1000BFF9002801DA002010BD012010BDC04617
:102D2000F0B5C6464E024702760A7B0A4400C50F3C
:102D3000F7004800984600B5240E2A00DB00000E7C
:102D4000C90FBC468D4267D0221A002A00DCA5E0DC
:102D500000283AD1002F00D193E0511E002900D065
:102D6000BCE00124DB1B5A0146D59B019E093000C3
:102D700000F062FD05388640844200DD9DE0041BC2
:102D8000320020200134E240041BA64033005E1EC6
:102D9000B341002413435A0704D00F221A40042AD7
:102DA00000D004335A0129D50134FF2C00D181E031
:102DB0002A009B015B0AE4B25B02E405580AD207D1
:102DC0002043104304BC9046F0BDFF2CE3D080218B
:102DD0003800C904084384461B2A00DD82E0202015
:102DE0006146D140821A604690400200501E8241E6
:102DF0000A439B1A5A01B8D45A07CED1DE082A00DA
:102E0000FF2C3AD1002E00D1AEE08023DB03334308
:102E10005B025B0AFF24CFE7211A002952DD00285C
:102E200031D0FF2CB7D080203E00C0040643B4460A
:102E30001B2900DDAAE020266046C840711A6646BC
:102E40008E4031004E1EB14101435B185901D3D56C
:102E50000134FF2C00D187E0012278491A405B0839
:102E60000B40134397E7002C00D0A7E0002B00D0C5
:102E7000B6E03B1E62D10026002273025B0AE4B278
:102E80009AE7140087E7002F4DD0481E002857D13D
:102E9000634401245A01AFD50224DDE7002A24D17E
:102EA000621CD2B2012ADEDDDE1B720135D5FE1AAC
:102EB0000D005CE72A0000237EE73300604A241AF5
:102EC000134068E7002963D1611CC8B201284EDDB8
:102ED000FF2949D063445B080C005CE7FF2A41D01E
:102EE0000A0079E701229B1A84E7002C1DD0FF28F5
:102EF00022D08024E404524223431B2A00DD8AE0CE
:102F00001C002025D440AA1A93405A1E9341234303
:102F100062460400D31A0D0025E7002E00D026E7F4
:102F200000220024A9E70C0035E7002B4DD0D24346
:102F3000002AEDD0FF28E0D16346FF240D002AE7E8
:102F4000FF290FD0010073E7002B61D0FF24002F71
:102F500000D120E780224146D203114202D016421E
:102F600000D13B00FF2416E7FF24002324E7002CB8
:102F7000EAD1002B58D0002F00D10CE763445A014E
:102F800000D439E72E4A0C00134004E701215CE726
:102F9000002C1ED1002B40D0C94300290BD0FF28A4
:102FA00036D01B2947DC1C002026CC40711A8B40F0
:102FB000591E8B4123436344040047E7002B18D17B
:102FC0003B1E2DD00D00FF24E5E63B0004000D0064
:102FD000E1E6FF281CD08024E40449422343E0E7D3
:102FE000002F00D1D7E6DE1B72011FD5FB1A0D00A2
:102FF000D1E6FF24002F00D1CDE680224046D20347
:103000001042AFD01642ADD13B000D00FF24C2E606
:103010006346FF24BFE601237AE73B000400BAE6DB
:1030200080260022F603F0E63B00B4E6331E00D013
:10303000E2E6002221E70123BDE7C046FFFFFF7D56
:10304000FFFFFFFB70B5420045024E024C00C30F6C
:103050006D0A120E760A240EC90F0120FF2A06D02F
:10306000FF2C03D0A24201D1B54206D070BD002D85
:10307000FCD1FF2CFAD1002EF8D18B4206D00120D2
:10308000002AF3D12800451EA841EFE70020EDE714
:10309000F0B5420045024C02C30F48006D0A120E03
:1030A000640A000EC90FFF2A1ED0FF2821D0002A73
:1030B0000AD16E426E41F6B200280FD1002C0DD11C
:1030C0000020002D09D005E0002801D1002C01D0FE
:1030D0008B4211D0012158420843F0BD002EF7D099
:1030E000012001390843F8E7002DDED002204042DC
:1030F000F3E7002CDBD0F9E78242EBDC04DBA542EE
:10310000E8D80020A542E8D20121581E0843E4E790
:10311000F0B542004D024C004602760A120EC30F73
:103120006D0A240EC90FFF2A16D0FF2C18D0002AD2
:103130000AD170427041C0B2002C15D0002805D0D1
:10314000012001390843F0BD002C13D0994214D05E
:1031500001205B421843F6E70220002EF3D1E4E79A
:103160000220002DEFD1E2E7002DE7D10020002E54
:10317000E9D0EDE7002DE9D1EAE7A24206DCDFDB8A
:10318000AE4203D80020AE42DAD3DCE70120494248
:103190000843D8E7F8B557464E464546DE46E0B503
:1031A0004702460088467F0A360EC40F002E47D0DD
:1031B000FF2E24D0FB008027FF041F4300239946E5
:1031C0009A467F3E43465D025800DB0F6D0A000EB3
:1031D000984643D0FF283BD0EB0080250022ED0429
:1031E0001D437F383618731C41469B464B46614051
:1031F00013430F2B64D875489B00C3589F46002F7C
:1032000042D108239946063BFF269A46DAE7414613
:10321000022A28D0032A00D1CEE0012A00D0ACE057
:10322000114000200022CCB24002D205400AE4073F
:10323000104320433CBC90469946A246AB46F8BD9D
:10324000002F15D104239946033B00269A46B9E77F
:10325000FF200222002DC5D00322C3E7002D19D183
:1032600000200122BEE70124FF220C400020DBE702
:10327000380000F0E1FA7626431F9F400023764293
:10328000361A99469A469DE70C239946093BFF2634
:103290009A4697E7280000F0CFFA431F9D40762317
:1032A0005B42181A00229DE780200024C003FF2201
:1032B000BAE73D005246ABE73D0021005246A7E782
:1032C0003B0C9C462A04120C2B0C140060466546ED
:1032D0003F043F0C7C4342435D437B43270C9B18D8
:1032E000FF18BA4203D980235B029C46654424043C
:1032F0003A04240C121993015C1EA3413F0C920E58
:103300007D191A43AD0115432B0104D501235E46F7
:103310006A081D40154332007F32002A25DD6B0705
:1033200004D00F232B40042B00D004352B0103D5F0
:103330003200274B80321D40FE2A94DC0124A80174
:10334000400AD2B20C406FE78020C003074207D08A
:10335000054205D128434002400A4446FF2263E764
:1033600038434002400AFF225EE70124A31A1B2BC8
:1033700005DD0C400022002056E75E46CBE72A0020
:103380002020DA40C31A9D402B005D1EAB41134341
:103390005A0704D00F221A40042A00D004335A01DD
:1033A00004D5012401220C4000203DE701249B01AB
:1033B000580A0C40002237E780200124C00328432C
:1033C0004002400A0C40FF222EE7C046E83F0000C2
:1033D000FFFFFFF7F0B54F46D64646464400C0B55E
:1033E000C20F47024802400A844666467B0A4800EC
:1033F000C90F9A46240E1500DB00000E8946F60020
:10340000FF2800D18FE001214F464F403900914203
:1034100066D0221A002A00DC9DE000283DD1002E53
:1034200000D18BE0511E002900D0B5E001249B1B88
:103430005A0144D59B019F09380000F0FDF9053879
:103440008740844200DD96E0041B3A0020200134CE
:10345000E240041BA7403B005F1EBB410024134316
:103460005A0704D00F221A40042A00D004335A010C
:1034700027D50134FF2C00D179E001229B015B0AA2
:10348000E4B22A405B02E405580AD2072043104305
:103490001CBC90469946A246F0BDFF2CE0D080218E
:1034A000C9040E431B2A7BDC31002020D140821A44
:1034B0009640721E96410E439B1B5A01BAD45A077E
:1034C000D0D10122DF082A40FF2C33D1002F00D1B8
:1034D000A8E08023DB033B435B025B0AFF24D1E7C8
:1034E000211A00294CDD00282AD0FF2CB8D08020DA
:1034F000C00406431B2900DDAFE030002027C84090
:10350000791A8E40711E8E4106439B195901D6D5FA
:103510000134FF2C00D185E001227A491A405B0872
:103520000B4013439CE7002E00D070E76BE73B1E77
:10353000C5D100227B025B0AE4B2A3E714008FE747
:10354000002E4DD0481E002857D19B1901245A0146
:10355000B5D50224E0E7002A25D1621CD2B2012AA7
:1035600072DD9F1B7A0135D5F71A0D0064E7012241
:1035700000232A4086E73B00634A241A13406FE782
:1035800000296CD1611CC8B201284EDDFF2949D049
:103590009B195B080C0063E7FF2A41D00A0081E712
:1035A00001269B1B89E7002C1CD0FF2821D08024FA
:1035B000E404524223431B2A00DD96E01C00202530
:1035C000D440AA1A93405A1E93412343F31A04008D
:1035D0000D002DE7002F00D02EE700220024A9E7E0
:1035E0000C003DE7002B58D0D243002AEED0FF2834
:1035F000E1D13300FF240D0032E7FF2910D0010094
:1036000078E7002B6ED0FF24002E00D128E780221F
:103610005146D203114203D06146114200D133001A
:10362000FF241DE7FF2400232CE7002CE9D1002B09
:1036300063D0002E00D113E79B195A0100D43EE756
:10364000314A0C0013400BE7002C1ED1002B2FD168
:10365000002E4FD033000D0002E7012655E7002C65
:103660001FD1002B43D0C94300290BD0FF2839D0EC
:103670001B2944DC1C002027CC40791A8B40591EA2
:103680008B4123439B19040040E7002B1AD1002EE5
:1036900024D180270022FF031BE7330004000D0024
:1036A000DEE6FF281ED08024E40449422343DFE7FE
:1036B000002E00D1D4E69F1B7A0100D437E7F31A1D
:1036C0000D00CDE6FF24002E00D1C9E68022504631
:1036D000D2031042A4D060461042A1D133000D00A5
:1036E000FF24BDE63300FF24BAE601236EE7330072
:1036F0000400B5E6002700221CE73300B0E60123F2
:10370000C0E7C046FFFFFF7DFFFFFFFB70B500284D
:1037100030D0C317C4185C40C50F200000F08CF8EF
:103720009E231B1A962B0DDC9622D21A94402A0057
:103730006402640ADBB26402DB05600AD207184344
:10374000104370BD992B19DC9922D21A002A29DD69
:1037500094402200144C1440510704D00F210A4019
:10376000042A00D00434620113D4A401640ADBB239
:103770002A00E0E7002200230024DCE705222100E4
:10378000121AD140B922D21A9440621E94410C43BD
:10379000DAE7054B2A001C409F23A4011B1A640A88
:1037A000DBB2C8E72200D5E7FFFFFFFB10B5041E20
:1037B00027D000F041F89E231B1A962B0ADC962294
:1037C000D21A94406402640ADBB26402DB05600A28
:1037D000184310BD992B17DC9922D21A002A27DD35
:1037E00094402200134C1440510704D00F210A408A
:1037F000042A00D00434620112D4A401640ADBB2AA
:10380000E3E700230024E0E7B9222100D21A914027
:103810000A00511E8A410521091ACC401443DBE7F6
:10382000044B1C409F23A4011B1A640ADBB2CCE7A3
:103830002200D7E7FFFFFFFB1C2101231B04984256
:1038400001D3000C10391B0A984201D3000A083931
:103850001B09984201D30009043902A2105C4018E8
:103860007047C0460403020201010101000000008C
:103870000000000070B500260C4D0D4C641BA41018
:10388000A64209D1002600F0BDF80A4D0A4C641B7F
:10389000A410A64205D170BDB300EB58984701367D
:1038A000EEE7B300EB5898470136F2E7100100202D
:1038B00010010020100100202401002010B5034B4E
:1038C0000100186800F016F810BDC046AC000020DA
:1038D000002310B59A4200D110BDCC5CC454013312
:1038E000F8E703008218934200D170471970013342
:1038F000F9E70000032370B5CD1C9D430835060091
:103900000C2D1ED20C25A9421DD8300000F069F8FC
:10391000254A14682100002919D1244C2368002B62
:1039200003D1300000F044F820602900300000F09E
:103930003FF8431C2CD10C233000336000F052F8C8
:1039400003E0002DDFDA0C233360002070BD0B682C
:103950005B1B1AD40B2B03D90B60CC18256003E03A
:103960008C420ED163681360300000F03BF82000F9
:1039700007220B30231D9043C31AE7D05A42E2506E
:10398000E4E74B6863600C00EEE70C004968C2E7AF
:103990000323C41C9C43A042E0D0211A300000F055
:1039A00007F8431CDAD1C6E7CC0E0020D00E002069
:1039B000002370B5064C05000800236000F014F8E1
:1039C000431C03D12368002B00D02B6070BDC04680
:1039D000D80E00200023C25C0133002AFBD1581E00
:1039E0007047704770470000044A1368002B03D0EB
:1039F0001818106018007047014BF9E7D40E00202A
:103A0000DC0E0020F8B5C046F8BC08BC9E467047E6
:103A1000F8B5C046F8BC08BC9E46704700000000E0
:103A20000000000000000000000000000000000096
:103A3000000000000000000001010101010101017E
:103A40000101010101020202020202020203030358
:103A50000303030304040404040505050506060620
:103A600006070707070808080909090A0A0A0B0BCD
:103A70000B0C0C0D0D0D0E0E0F0F1010111112125C
:103A8000131314141515161617181819191A1B1BC9
:103A90001C1D1D1E1F20202122232324252627270D
:103AA00028292A2B2C2D2E2F303132323334363721
:103AB00038393A3B3C3D3E3F404243444546484905
:103AC0004A4B4D4E4F515253555657595A5C5D5FB4
:103AD000606263656668696B6D6E70727375777826
:103AE0007A7C7E7F81838587898A8C8E909294965A
:103AF000989A9C9EA0A2A4A7A9ABADAFB1B4B6B84A
:103B0000BABDBFC1C4C6C8CBCDD0D2D5D7DADCDFF1
:103B1000E1E4E7E9ECEFF1F4F7F9FCFF0000000065
:103B2000000000001B0F0000FD0D0000590D0000FB
:103B300041726475696E6F205A65726F00000403EC
:103B4000090441726475696E6F204C4C4300120188
:103B50000002EF02014041234D80000101020301F8
:103B60001A001A001B001B001C001C001D001D0079
:103B7000000000000B000000020000000400000034
:103B8000FF00FFFFFFFF0B00000000000A00000025
:103B90000200000004000000FF00FFFFFFFF0A001A
:103BA000000000000E0000000800000004000000FB
:103BB000FF00FFFFFFFF0E000000000009000000F3
:103BC000040000001C000000FF00010001000900CB
:103BD0000000000008000000040000001C000000BD
:103BE000FF00000000001000000000000F000000B7
:103BF000040000001C000000FF00010301030F008F
:103C00000000000014000000050000002C0000006F
:103C1000FF00020002000400000000001500000088
:103C2000050000002C000000FF0003000300050059
:103C30000000000006000000040000001C0000005E
:103C4000FF00000100010600000000000700000066
:103C5000040000001C000000FF000101010107003A
:103C60000000000012000000040000001C00000022
:103C7000FF0000030003020000000000100000002D
:103C8000040000001C000000FF0000020002000011
:103C90000000000013000000050000002C000000E0
:103CA000FF000300030003000000000011000000FB
:103CB000040000001C000000FF00010201020100DE
:103CC00000000000020000000100000002000000EF
:103CD0000000FFFFFFFF02000100000008000000DD
:103CE00001000000180000000200000400040800A9
:103CF00001000000090000000100000018000000A1
:103D00000300010401040900000000000400000099
:103D100001000000000000000400FFFFFFFF04009E
:103D2000000000000500000001000000000000008D
:103D30000500FFFFFFFF050001000000020000007A
:103D400001000000000000000A00FFFFFFFF02006A
:103D50000000000016000000020000000400000047
:103D6000FF00FFFFFFFF060000000000170000003B
:103D70000200000004000000FF00FFFFFFFF07003B
:103D8000000000000C000000030000000400000020
:103D9000FF00FFFFFFFF0C00010000000A00000011
:103DA0000300000004000000FF00FFFFFFFF0A0007
:103DB000010000000B0000000300000004000000F0
:103DC000FF00FFFFFFFF0B000100000003000000E9
:103DD0000B00000004000000FF00FFFFFFFFFF00DA
:103DE000000000001B0000000B00000004000000A9
:103DF000FF00FFFFFFFFFF00000000001C000000AD
:103E00000600000000000000FF00FFFFFFFFFF00B2
:103E10000000000018000000060000000000000084
:103E2000FF00FFFFFFFFFF0000000000190000007F
:103E30000600000000000000FF00FFFFFFFFFF0082
:103E40000100000016000000030000000000000058
:103E5000FF00FFFFFFFFFF00010000001700000050
:103E60000300000000000000FF00FFFFFFFFFF0055
:103E7000000000001600000002000000000000002A
:103E8000FF00FFFFFFFFFF00000000001700000021
:103E90000200000000000000FF00FFFFFFFFFF0026
:103EA00000000000130000000200000000000000FD
:103EB000FF00FFFFFFFFFF000000000010000000F8
:103EC0000200000000000000FF00FFFFFFFFFF00F6
:103ED00000000000120000000200000000000000CE
:103EE000FF00FFFFFFFFFF000000000011000000C7
:103EF0000200000000000000FF00FFFFFFFFFF00C6
:103F0000000000000D000000040000000C00000094
:103F1000FF000100FFFF0D00000000001500000081
:103F2000050000000C000000FF000300FFFFFF0081
:103F30000000000006000000040000000C0000006B
:103F4000FF000001FFFFFF0000000000070000006D
:103F5000040000000C000000FF000101FFFFFF0053
:103F6000000000000300000001000000020000004B
:103F7000FF00FFFFFFFFFF00000000000200000045
:103F800001000000020000001400FFFFFFFF02001C
:103F900000000000000000009126000085290000BC
:103FA000D325000095250000AD2500004527000021
:103FB000A92300009923000025240000BF2300004E
:103FC0009523000000000000000000009127000081
:103FD000BD2700008D270000B1270000A5270000A5
:103FE000F5270000D9270000C03200001032000081
:103FF000103200000E320000B2320000B232000077
:10400000A83200000E320000B2320000A8320000D8
:10401000B23200000E320000B8320000B8320000A8
:0C402000B832000048330000000000002F
:10402C0001010100FFFFFFFF000000008300000002
:10403C0002000000820000000000000000000000F0
:10404C000000000000000000000000000000000064
:10405C0040420F000A0000000A00000008000000A7
:10406C00002000420024004200280042002C0042A4
:10407C000030004200340042FFFFFFFF00C201008D
:10408C0000000800080B00020202000009040000F6
:10409C00010202000005240010010424020605247C
:1040AC000600010524010101070581031000100918
:1040BC00040100020A00000007050202400000078C
:1040CC000583024000000000FFFFFFFFB00000204E
:1040DC0000000000000000000000000000000000D4
:1040EC0000000000000000000000000000000000C4
:1040FC0000000000000000000000000000000000B4
:10410C0000000000000000000000000000000000A3
:10411C000000000000000000000000000000000093
:10412C000000000000000000000000000000000083
:10413C00DD00000069080000151B0000FD200000D8
:10414C00B1280000B50000000000000000000000D5
:04000003000008DD14
:00000001FF
